:100000000C9434000C9446000C9446000C9446006A
:100010000C9446000C9446000C9446000C94460048
:100020000C9446000C9446000C9446000C94460038
:100030000C9446000C9446000C9446000C94460028
:100040000C9446000C9446000C946A000C944600F4
:100050000C9446000C9446000C9446000C94460008
:100060000C9446000C94460011241FBECFEFD8E03C
:10007000DEBFCDBF25E0A0E0B1E001C01D92AF32F0
:10008000B207E1F70E94CA000C94AA040C94000085
:1000900014B88AB18F738AB987B18F6087B985B177
:1000A000807F85B93D9A4598529A5A98539A5B9A9F
:1000B000549A5C9A559A5D9A5D983C98089514B844
:1000C0008AB18F738AB908958FE384B98AB1806C3D
:1000D0008AB908951F921FB61F9211242F933F9340
:1000E0008F939F93EF93FF938091C0008C71811148
:1000F00047C0E0911603F09117038091C600E85EB7
:10010000FC4F808380911603909117030196909382
:100110001703809316038091160390911703049799
:1001200059F48091190390911A03982789279827E9
:1001300090931403809313038091130390911403FD
:10014000892BF1F0809113039091140320911603F1
:100150003091170304968217930791F410921703B6
:1001600010921603109214031092130380911B0334
:100170008D3319F481E08093000181E080931503B1
:10018000FF91EF919F918F913F912F911F901FBEF3
:100190001F9018950E9483040E94480078948091D3
:1001A0001503811521F00E94920210921503F7CFDA
:1001B000419827E030E090E0AC01022E02C0559556
:1001C00047950A94E2F740FF07C0409A419A419848
:1001D0002150310988F708954098F8CFCF93C82F60
:1001E000892F0E94D8008C2F0E94D8005D9A5D98BC
:1001F000CF9108950F931F93CF93DF93EC018C0160
:10020000060F171FC017D10729F4DF91CF911F9157
:100210000F91089589910E949104F4CFE8E1F3E0F1
:100220008CEA8083118281E082838AED8383148249
:1002300065E070E0CF010C94FA0095B1907C95B91F
:1002400095B1282F2F73922B95B99BB19F739BB9B2
:100250009BB1807C892B8BB9089589B193B19F7331
:10026000807C892B089598B1907F98B998B18F7050
:10027000982B98B9089585E08A95F1F70000459A82
:1002800085E08A95F1F70000459885E08A95F1F7B9
:1002900000000895DF92EF92FF920F931F93CF9388
:1002A000DF930E945F008CE00E9433015C9A5A98B1
:1002B0005B982FEF89EF90E0215080409040E1F76C
:1002C00000C000005A985B9AC0E0D0E08CEAF82E9B
:1002D00092E0E92E28EAD22E80912D0590912E05EC
:1002E000C817D90740F0DF91CF911F910F91FF9070
:1002F000EF90DF90089505E011E0E5E3EA95F1F76E
:1003000000000E942D01F80181938F010E943B01A2
:10031000F3E005301F0789F7F0920101E092020136
:1003200010920301D092040164E072E081E091E058
:100330000E94FA00809100018115E1F31092000102
:10034000DE5FCACFCF93DF93CFE1D3E089918F3FB8
:10035000D9F40E943B0185E0CF31D807B9F78CEA88
:10036000809301011092020181E0809303018AEAE7
:10037000809304011092050165E070E081E091E056
:10038000DF91CF910C94FA000E941D0195E39A959C
:10039000F1F700005C988FED91E00197F1F700C054
:1003A00000005C9A95E39A95F1F70000349BFECF2C
:1003B000D0CFBF92CF92DF92EF92FF920F931F9315
:1003C000CF93DF930E945F005C9A5A985B982FEF5F
:1003D00089EF90E0215080409040E1F700C000009C
:1003E0005A985B9AC0E0D0E09CEAD92E22E0C22E57
:1003F00038EAB32E80912D0590912E05C817D907A4
:1004000050F0DF91CF911F910F91FF90EF90DF900F
:10041000CF90BF90089585E0E82E81E0F82E00E0AF
:1004200010E0C8018C0F9D1F0E94EE008CE00E941E
:100430003301E5E3EA95F1F700000E942D01F70191
:1004400081937F010F5F1F4F0115F2E01F0749F7EE
:10045000D0920101C092020110920301B0920401F6
:1004600064E072E081E091E00E94FA008091000176
:100470008115E1F310920001DE5FBCCF0F931F9353
:10048000CF93DF930FE113E0C0E0D0E0F80181915A
:100490008F018F3F29F52196C115F2E0DF07B1F7F3
:1004A00080912B0590912C059E5F90932C05809355
:1004B0002B058CEA809301011092020181E0809368
:1004C00003018AEA809304011092050165E070E05F
:1004D00081E091E0DF91CF911F910F910C94FA0090
:1004E00080912B0590912C058C0F9D1F0E94EE0092
:1004F0008EE00E943301F80182910E941D0185E384
:100500008A95F1F700005C98EFEDF1E03197F1F793
:1005100000C000005C9AF5E3FA95F1F70000349B07
:10052000FECFB9CFE0911B03EB3A60F4E03A08F458
:10053000E0C1E05AEB3008F0DCC1F0E0E455FB4FDD
:100540000C94A404EA3D09F0D4C10C940E018091EE
:100550001C0380932A050E945F005A985B988FE3E2
:100560009CE90197F1F700C000005A985B9A8091CE
:100570002A055C9A81112AC00E9433018FE39CE90D
:100580000197F1F700C000000E942D018093070140
:100590000E943B0195E39A95F1F700000E942D011E
:1005A000809306018FEF809305018CEA809301010F
:1005B0001092020183E08093030180EA809304019A
:1005C00067E070E081E091E00C94FA0080E390E055
:1005D0000E94EE0080E00E94330125E32A95F1F7A6
:1005E00000000E942D018093070181E390E00E94AA
:1005F000EE0080E00E94330185E38A95F1F7000068
:100600000E942D018093060182E390E00E94EE009B
:1006100080E00E94330195E39A95F1F700000E9473
:100620002D01C1CF8091200380932A050E94640090
:100630008FEF0E941D015A985B988FE39CE9019708
:10064000F1F700C000005A985B9A80912A05811149
:1006500049C05A9A8FE39CE90197F1F700C0000066
:1006600080911F0380FD15C08FE00E94330195E348
:100670009A95F1F700005C988FED91E00197F1F702
:1006800000C000005C9A8FE39FE10197F1F700C082
:10069000000080911F0381FD15C083E00E9433019B
:1006A00095E39A95F1F700005C988FED91E0019742
:1006B000F1F700C000005C9A8FE39FE10197F1F72A
:1006C00000C000005A985B9A8CEA80930101109256
:1006D000020181E08093030182EA80930401109279
:1006E00005018CC05C9A5A9A80911F0380FD19C045
:1006F00080E090E00E94EE008FE00E94330195E3DD
:100700009A95F1F700005C988FED91E00197F1F771
:1007100000C000005C9A8FE39FE10197F1F700C0F1
:10072000000080911F0381FD19C080E090E00E94CD
:10073000EE0083E00E94330195E39A95F1F7000003
:100740005C988FED91E00197F1F700C000005C9A92
:100750008FE39FE10197F1F700C0000080911F0334
:1007600082FDB0CF80E090E00E94EE0085E096CF61
:1007700080911C0380932A050E9464008FEF0E94E1
:100780001D015A985B988FE39CE90197F1F700C02F
:1007900000005A9A8FE39CE90197F1F700C000002E
:1007A00080912A0581112DC081E00E9433018FE3E1
:1007B0009CE90197F1F700C000005C988FE59AEE84
:1007C0000197F1F700C000005C9A9FEF29EF80E0ED
:1007D000915020408040E1F700C000005A985B9A99
:1007E0008CEA809301011092020181E08093030161
:1007F00083EA8093040181EA8093050165E070E05B
:10080000E1CE80E090E00E94EE0081E00E943301A2
:100810008FE39CE90197F1F700C000005C988FE539
:100820009AEE0197F1F700C000005C9A9FEF21EE6D
:1008300084E0915020408040E1F7CECF5A985B9AF7
:100840000C945F0080911C0390911D0390932E05E2
:1008500080932D0580911F0380932A05811102C08A
:100860000C944A010C94D9010E94640080911E03EB
:1008700080932A0510922C0510922B05811120C01F
:100880008FEF0E941D015C9A5A985B988FE39CE958
:100890000197F1F700C000005A9A8FE39CE9019795
:1008A000F1F700C000008EE00E9433018CEA8093D3
:1008B00001011092020181E0809303018AEA0DCFC9
:1008C0005C9A5A985B988FE39CE90197F1F700C016
:1008D00000005A9A8FE39CE90197F1F700C00000ED
:1008E000E5CF80912A05811102C00C94A2010C94DD
:1008F0003E028CEA809301011092020181E0809314
:1009000003018EEEEACE1092C00088E98093C10008
:1009100086E08093C2001092C50080E18093C400FD
:1009200008959091C00095FFFCCF8093C600089574
:10093000CF93DF93EC018991811103C0DF91CF91B7
:1009400008950E949104F7CFEE0FFF1F0590F491D8
:10095000E02D0994F894FFCFA70279041203B8039D
:0E0960007904790479041E042204340471041D
:00000001FF
